{
  "contracts/FactoryProxy.sol": {
    "FactoryProxy": {
      "abi": [
        {
          "inputs": [],
          "stateMutability": "nonpayable",
          "type": "constructor"
        },
        {
          "anonymous": false,
          "inputs": [
            {
              "indexed": false,
              "internalType": "address",
              "name": "_newAdmin",
              "type": "address"
            }
          ],
          "name": "AdminChanged",
          "type": "event"
        },
        {
          "anonymous": false,
          "inputs": [
            {
              "indexed": false,
              "internalType": "address",
              "name": "_newImplementation",
              "type": "address"
            }
          ],
          "name": "LogicContractChanged",
          "type": "event"
        },
        {
          "stateMutability": "payable",
          "type": "fallback"
        },
        {
          "inputs": [],
          "name": "implementation",
          "outputs": [
            {
              "internalType": "address",
              "name": "impl",
              "type": "address"
            }
          ],
          "stateMutability": "view",
          "type": "function"
        },
        {
          "inputs": [],
          "name": "proxyAdmin",
          "outputs": [
            {
              "internalType": "address",
              "name": "admin",
              "type": "address"
            }
          ],
          "stateMutability": "view",
          "type": "function"
        },
        {
          "inputs": [
            {
              "internalType": "address",
              "name": "_logicAddress",
              "type": "address"
            }
          ],
          "name": "setLogicContract",
          "outputs": [],
          "stateMutability": "nonpayable",
          "type": "function"
        },
        {
          "inputs": [
            {
              "internalType": "address",
              "name": "_newAdmin",
              "type": "address"
            }
          ],
          "name": "setProxyAdmin",
          "outputs": [],
          "stateMutability": "nonpayable",
          "type": "function"
        }
      ],
      "evm": {
        "bytecode": {
          "linkReferences": {},
          "object": "608060405234801561001057600080fd5b50337f2ea7b5aad0801666e1a7c3fed8d99cc8b4f0213f2c36c0b951c12a407071b480556102c0806100436000396000f3fe60806040526004361061003f5760003560e01c80633e47158c1461008857806347c02661146100c25780635aa4470f146100e45780635c60da1b14610104575b7fbd7d61d068a83094bdb60f072256107021ceb1096eaae8aab9df31b96d545b8780543660008037600080366000845af490503d6000803e808015610083573d6000f35b3d6000fd5b34801561009457600080fd5b5060008051602061026b833981519152545b6040516001600160a01b03909116815260200160405180910390f35b3480156100ce57600080fd5b506100e26100dd36600461023c565b610138565b005b3480156100f057600080fd5b506100e26100ff36600461023c565b6101b5565b34801561011057600080fd5b507fbd7d61d068a83094bdb60f072256107021ceb1096eaae8aab9df31b96d545b87546100a6565b3361014f60008051602061026b8339815191525490565b6001600160a01b03161461016257600080fd5b60008051602061026b8339815191528181556040516001600160a01b03831681527f7ce7ec0b50378fb6c0186ffb5f48325f6593fcb4ca4386f21861af3129188f5c906020015b60405180910390a15050565b336101cc60008051602061026b8339815191525490565b6001600160a01b0316146101df57600080fd5b7fbd7d61d068a83094bdb60f072256107021ceb1096eaae8aab9df31b96d545b878181556040516001600160a01b03831681527f4361751df668506fada09fb2a12c765e63589ab394fccb6006ce6fb4a532d98f906020016101a9565b60006020828403121561024d578081fd5b81356001600160a01b0381168114610263578182fd5b939250505056fe2ea7b5aad0801666e1a7c3fed8d99cc8b4f0213f2c36c0b951c12a407071b480a2646970667358221220c552e427a38a0dadf6b46db90d59539bccfb3bd44ed7d41e5b37865e474c36eb64736f6c63430008040033",
          "opcodes": "PUSH1 0x80 PUSH1 0x40 MSTORE CALLVALUE DUP1 ISZERO PUSH2 0x10 JUMPI PUSH1 0x0 DUP1 REVERT JUMPDEST POP CALLER PUSH32 0x2EA7B5AAD0801666E1A7C3FED8D99CC8B4F0213F2C36C0B951C12A407071B480 SSTORE PUSH2 0x2C0 DUP1 PUSH2 0x43 PUSH1 0x0 CODECOPY PUSH1 0x0 RETURN INVALID PUSH1 0x80 PUSH1 0x40 MSTORE PUSH1 0x4 CALLDATASIZE LT PUSH2 0x3F JUMPI PUSH1 0x0 CALLDATALOAD PUSH1 0xE0 SHR DUP1 PUSH4 0x3E47158C EQ PUSH2 0x88 JUMPI DUP1 PUSH4 0x47C02661 EQ PUSH2 0xC2 JUMPI DUP1 PUSH4 0x5AA4470F EQ PUSH2 0xE4 JUMPI DUP1 PUSH4 0x5C60DA1B EQ PUSH2 0x104 JUMPI JUMPDEST PUSH32 0xBD7D61D068A83094BDB60F072256107021CEB1096EAAE8AAB9DF31B96D545B87 DUP1 SLOAD CALLDATASIZE PUSH1 0x0 DUP1 CALLDATACOPY PUSH1 0x0 DUP1 CALLDATASIZE PUSH1 0x0 DUP5 GAS DELEGATECALL SWAP1 POP RETURNDATASIZE PUSH1 0x0 DUP1 RETURNDATACOPY DUP1 DUP1 ISZERO PUSH2 0x83 JUMPI RETURNDATASIZE PUSH1 0x0 RETURN JUMPDEST RETURNDATASIZE PUSH1 0x0 REVERT JUMPDEST CALLVALUE DUP1 ISZERO PUSH2 0x94 JUMPI PUSH1 0x0 DUP1 REVERT JUMPDEST POP PUSH1 0x0 DUP1 MLOAD PUSH1 0x20 PUSH2 0x26B DUP4 CODECOPY DUP2 MLOAD SWAP2 MSTORE SLOAD JUMPDEST PUSH1 0x40 MLOAD PUSH1 0x1 PUSH1 0x1 PUSH1 0xA0 SHL SUB SWAP1 SWAP2 AND DUP2 MSTORE PUSH1 0x20 ADD PUSH1 0x40 MLOAD DUP1 SWAP2 SUB SWAP1 RETURN JUMPDEST CALLVALUE DUP1 ISZERO PUSH2 0xCE JUMPI PUSH1 0x0 DUP1 REVERT JUMPDEST POP PUSH2 0xE2 PUSH2 0xDD CALLDATASIZE PUSH1 0x4 PUSH2 0x23C JUMP JUMPDEST PUSH2 0x138 JUMP JUMPDEST STOP JUMPDEST CALLVALUE DUP1 ISZERO PUSH2 0xF0 JUMPI PUSH1 0x0 DUP1 REVERT JUMPDEST POP PUSH2 0xE2 PUSH2 0xFF CALLDATASIZE PUSH1 0x4 PUSH2 0x23C JUMP JUMPDEST PUSH2 0x1B5 JUMP JUMPDEST CALLVALUE DUP1 ISZERO PUSH2 0x110 JUMPI PUSH1 0x0 DUP1 REVERT JUMPDEST POP PUSH32 0xBD7D61D068A83094BDB60F072256107021CEB1096EAAE8AAB9DF31B96D545B87 SLOAD PUSH2 0xA6 JUMP JUMPDEST CALLER PUSH2 0x14F PUSH1 0x0 DUP1 MLOAD PUSH1 0x20 PUSH2 0x26B DUP4 CODECOPY DUP2 MLOAD SWAP2 MSTORE SLOAD SWAP1 JUMP JUMPDEST PUSH1 0x1 PUSH1 0x1 PUSH1 0xA0 SHL SUB AND EQ PUSH2 0x162 JUMPI PUSH1 0x0 DUP1 REVERT JUMPDEST PUSH1 0x0 DUP1 MLOAD PUSH1 0x20 PUSH2 0x26B DUP4 CODECOPY DUP2 MLOAD SWAP2 MSTORE DUP2 DUP2 SSTORE PUSH1 0x40 MLOAD PUSH1 0x1 PUSH1 0x1 PUSH1 0xA0 SHL SUB DUP4 AND DUP2 MSTORE PUSH32 0x7CE7EC0B50378FB6C0186FFB5F48325F6593FCB4CA4386F21861AF3129188F5C SWAP1 PUSH1 0x20 ADD JUMPDEST PUSH1 0x40 MLOAD DUP1 SWAP2 SUB SWAP1 LOG1 POP POP JUMP JUMPDEST CALLER PUSH2 0x1CC PUSH1 0x0 DUP1 MLOAD PUSH1 0x20 PUSH2 0x26B DUP4 CODECOPY DUP2 MLOAD SWAP2 MSTORE SLOAD SWAP1 JUMP JUMPDEST PUSH1 0x1 PUSH1 0x1 PUSH1 0xA0 SHL SUB AND EQ PUSH2 0x1DF JUMPI PUSH1 0x0 DUP1 REVERT JUMPDEST PUSH32 0xBD7D61D068A83094BDB60F072256107021CEB1096EAAE8AAB9DF31B96D545B87 DUP2 DUP2 SSTORE PUSH1 0x40 MLOAD PUSH1 0x1 PUSH1 0x1 PUSH1 0xA0 SHL SUB DUP4 AND DUP2 MSTORE PUSH32 0x4361751DF668506FADA09FB2A12C765E63589AB394FCCB6006CE6FB4A532D98F SWAP1 PUSH1 0x20 ADD PUSH2 0x1A9 JUMP JUMPDEST PUSH1 0x0 PUSH1 0x20 DUP3 DUP5 SUB SLT ISZERO PUSH2 0x24D JUMPI DUP1 DUP2 REVERT JUMPDEST DUP2 CALLDATALOAD PUSH1 0x1 PUSH1 0x1 PUSH1 0xA0 SHL SUB DUP2 AND DUP2 EQ PUSH2 0x263 JUMPI DUP2 DUP3 REVERT JUMPDEST SWAP4 SWAP3 POP POP POP JUMP INVALID 0x2E 0xA7 0xB5 0xAA 0xD0 DUP1 AND PUSH7 0xE1A7C3FED8D99C 0xC8 0xB4 CREATE 0x21 EXTCODEHASH 0x2C CALLDATASIZE 0xC0 0xB9 MLOAD 0xC1 0x2A BLOCKHASH PUSH17 0x71B480A2646970667358221220C552E427 LOG3 DUP11 0xD 0xAD 0xF6 0xB4 PUSH14 0xB90D59539BCCFB3BD44ED7D41E5B CALLDATACOPY DUP7 0x5E SELFBALANCE 0x4C CALLDATASIZE 0xEB PUSH5 0x736F6C6343 STOP ADDMOD DIV STOP CALLER "
        },
        "methodIdentifiers": {
          "implementation()": "5c60da1b",
          "proxyAdmin()": "3e47158c",
          "setLogicContract(address)": "5aa4470f",
          "setProxyAdmin(address)": "47c02661"
        }
      }
    }
  }
}